:040000006F00202E3F
:100004000000000000000000080200000A020000D6
:1000140000000000E00200000000000000000000FA
:10002400E0020000E0020000000000000000000008
:10003400E002000000000000E002000000000000F8
:10004400E0020000E0020000E00200000000000006
:10005400E0020000E0020000E0020000E002000014
:10006400E0020000E0020000E0020000E002000004
:10007400E0020000E0020000E0020000E0020000F4
:10008400E0020000E0020000E0020000E0020000E4
:10009400E0020000E0020000E0020000E0020000D4
:1000A400E0020000E0020000E0020000E0020000C4
:1000B400E0020000E0020000E0020000E0020000B4
:1000C400E0020000E0020000E0020000E0020000A4
:1000D400E0020000E0020000E00200000000000076
:1000E400000000000000000000000000000000000C
:0C00F40000000000000000000000000000
:10010000397101436EC619A0397141536AC866CA74
:1001100062CC5ECE19A0397101535AD056D252D456
:100120004ED64AD826DA22DC06DE330161408282CE
:1001300041114AC026C222C406C68282B24D410184
:10014000024D924C224CB24B4101024B924A224A40
:10015000B2494101024992442244B24041018280A5
:100160003D432A876373C3029377F700BDEFADE584
:10017000937606FF3D8ABA960CC34CC30CC74CC796
:100180004107E36BD7FE11E28280B306C3408A06C3
:100190009702000096966780A6002307B700A30683
:1001A000B7002306B700A305B7002305B700A304D3
:1001B000B7002304B700A303B7002303B700A302CB
:1001C000B7002302B700A301B7002301B700A300C3
:1001D000B7002300B700828093F5F50F9396850052
:1001E000D58D93960501D58D61B79396270097021B
:1001F000000096968682E78086FA9680C1171D8F4A
:100200003E96E374C3F8A5B701A0B707EFBE37E782
:1002100000E0938707083CC701A0EFF27FF1054596
:10022000D92C4120E5267165130505202921B757F2
:10023000000003A6072283A64722375500001305B6
:100240000523EF00F067B757000003A6872283A6B7
:10025000C722375500001305C523EF00706601A0C3
:10026000B71702409843B70600F99386F6F513676F
:10027000170098C3D84313670705D8C3D843758FB1
:10028000D8C3372702401443F19A14C3144393E6AA
:10029000260014C3D8431377F7F0D8C3D843D8C384
:1002A0008280B7160240DC42918313F7F700B7074C
:1002B000002093870700BA979C23D4423777DC024B
:1002C00093F7F70F130707C093F606083356F700A6
:1002D00099E23356F702B707002023A8C71E828091
:1002E00001A0970100209381E170175100201301B4
:1002F00061D1175500001305A53F97050020938590
:1003000065D01386018263FAC5008322050023A00D
:10031000550011059105E3EAC5FE13850182938519
:1003200041836377B500232005001105E36DB5FE19
:10033000FD42739002BC8D4273904280930280080C
:100340007390023097020000938202CC93E2320055
:1003500073905230EFF0DFF097020000938222ECAE
:100360007390123473002030984593770701137807
:10037000F70081C7DC413368F8009441814713F6E8
:10038000F60F39C21C410146854E3D4F930F800246
:1003900093028004214EB398CE00B3F51601639109
:1003A000B80213132600B3156F0093C5F5FFED8F48
:1003B00033136800B367F3006315F70F232A1501A1
:1003C0000506E31AC6FD1CC14166130606F0758ECC
:1003D00049C237F6FF1F032646701376060F7DE2EB
:1003E00037160140930506806312B50C83A7418040
:1003F000A145854E3D4F930F800293028004414EEC
:100400003393BE0033F666006312C30213962500D1
:100410000116B318CF0093C8F8FFB3F7F8003316EE
:10042000C800D18F6312F70B232A65008505E39975
:10043000C5FD5CC137F6FF1F032646701376060F15
:1004400009EA37160140930506806314B50823A214
:10045000F180C16763E6F604504D8147054E3D4F7C
:10046000930F800293028004A14E93850701B31578
:10047000BE00B3F8B60063911503939827003313B9
:100480001F011343F3FF3376C300B318180133E69B
:10049000C800631CF7054CC98507E398D7FD50CD0C
:1004A0008280E31F57F02328150119BF930506C06A
:1004B0006315B50083A7818025BFE31BC5F283A721
:1004C000C1803DB75C412DB7E31257F62328650084
:1004D000B1BF930506C06315B50023A4F18095BF95
:1004E000E319C5F623A6F180ADB7E31757FAB315A4
:1004F000FE000CD155B723A0A1828280B777DC0221
:10050000938707C01CC13716024058421183937667
:10051000F7003707002013070701369714235042CE
:1005200093F6F60F1376060833D7D70019E233D7C0
:10053000D70258C118C558C5828099C537170240DF
:100540001C4F5D8D08CF8280B7170240984F13452E
:10055000F5FF798D88CF8280EFF29FBD1629F57760
:10056000FD17F58FF621DA250111D58F1EA9562525
:10057000FD779387379FF58FD6212A842EC6D58F96
:100580009625D58FB625D58F5EA55E29C207C18376
:1005900093F7F7CFD98F5EA908088D37B747014089
:1005A00093870780B245631DF402F2476547B3871E
:1005B000E7029841930640060A07B3D7E70233D70C
:1005C000D702B3F7D7021207920793872703B3D74F
:1005D000D702BD8BD98FC207C1831EA405619DBE02
:1005E000E247E9B791C55E250967D98F5EA582808C
:1005F0005A25F977FD17F98FD5BF93F5F51F4EA151
:1006000082800A216D8D3335A0008280B7070020DB
:1006100083A7071F37177A0013070720B3D7E7020E
:1006200093F7F70F2383F1821307803EB387E70226
:100630002392F1828280EFF2BFAF2A84116501110B
:1006400085452105DD3D930700403EC23715014039
:1006500085473EC44C00E147130505C03EC629331B
:1006600022C837440140B70708000C08130504806E
:100670003ECC02CA231E0100C53585451305048002
:1006800095370561C1BCEFF21FA9B7440140AE899F
:100690003289014493840480634424014A8575B4FB
:1006A000930500042685B13F65DDB3878900838506
:1006B000070026850504C205C1818137F1BF138774
:1006C00001811C43938641833E95636BD500B756E9
:1006D00000209386068063E5A60008C33E858280DD
:1006E000FD57EDBF797122D44AD052CC56CA5AC8B0
:1006F00006D626D24ECE3A8AAE8A32843689428BCC
:10070000014763580600370700803344C7001307CA
:10071000D00298A393F4F8FD930760048D46638894
:10072000F4009307500489466393F4000509DA87BF
:100730009308C100130881004A87D6852286EF00FE
:10074000103193077004AA896396F400137A1A0093
:10075000630A0A0493076004338A29016397F40249
:1007600003C7090093070003631EF7000146814693
:100770005685A285EF30500A11C585473389274138
:1007800023202B0183270B003E9A01468146568584
:10079000A285EF30700811E152C613070003B2477B
:1007A00063E24703B2474257B2502254B3873741FE
:1007B0001CC34E8592540259F249624AD24A424BB6
:1007C000456182809386170036C698A3C9BF10A1E1
:1007D000130725009307B00263D60500B305B040A8
:1007E0009307D0021CB1A54763DAB7044111930700
:1007F000F100BE88294813033006B3E605031386CB
:10080000F7FF93860603A38FD7FEB3C60503634D98
:10081000B30093860603F917A30FD6FE63E9170109
:100820003305A74041018280B287B685F9B78507B5
:1008300083C6F7FF0507A30FD7FECDB793070003C5
:1008400013074500938505033CA12CB13305A74050
:10085000828019713ACE86DEA2DCA6DA2E84CAD84E
:10086000CED6D2D4B689DAD0DECEE2CC3289D6D298
:10087000E6CAEAC8EEC6AA84EF10A07F832B050063
:100880005E85EF001008032B0400724702DC9376AC
:100890000B102A8C034A84011C43F1CA938647003B
:1008A00014C39C43081098433AD0D8433AD298478F
:1008B0003AD4DC473ED6EF40E06928C46CC4832CB0
:1008C000C4041757000013076798832A8404032D74
:1008D0000700832D470093971C0085836A86EE8668
:1008E0005685BE853ECEEF40404F41EDF2476A86C9
:1008F000EE865685BE85EF30B0036354A0080146EE
:1009000081465685E685EF30B002635605009307B1
:10091000D002A301F40493077004975A0000938A4D
:100920006A9363F64701975A0000938AEA92137B11
:10093000BBFF8D47232064011CC8014B4E87CA862C
:100940007018A2852685F126FD5C631C95157D55E2
:10095000F6506654D6544659B659265A965A065BEE
:10096000F64B664CD64C464DB64D096182809D07CC
:10097000E19B9386870014C39843DC4338C47CC44E
:100980003DBF5686E6865685E685EF40004511CD8B
:1009900093077004975A0000938A4A8CE3F947F949
:1009A000975A0000938ACA8B59B75C407D57137DD4
:1009B000FA0D6393E70899475CC0544013670B40F6
:1009C0003C18D6853EC018C09307310302C2D288B6
:1009D0001308410366862685313393077004AA8A7B
:1009E000D255631BFD00F55763C5F5005C4063D726
:1009F000B708791A137AFA0F9307500663E547058B
:100A0000FD155286130504052EDAD133625785464B
:100A10002A8BB307A7001CC863C5E6001840058BE6
:100A200019C385071CC883473103E38907F093077F
:100A3000D002A301F40419B713077004E31FEDF605
:100A4000ADFF854795BF93076006631BFA025C40C4
:100A5000635BB0000CC881E71840058B09CF8507A0
:100A6000AE971CC809A889E718408546058B19C3AD
:100A70009386270014C82CCC014B75B7130A700657
:100A8000E25763C9F5001C400CC8858BEDD79387EE
:100A90001500C1BF05476344B00009470D8FBA97E1
:100AA000C9B71C4013F7074015E314485686CA859A
:100AB00026858299E30D95E91C40898B639607246E
:100AC000F2574844E356F5E83E8559B513075006FA
:100AD000637B471928446C4401468146EF30C0537C
:100AE00039E98546174600001306C677CA8526856C
:100AF0008299E30E95E55257E2576345F7001C4093
:100B0000858BDDDBE2865E86CA8526858299FD5768
:100B1000E30FF5E2014A930AA4017D5BE257FD175A
:100B2000E35CFAF885465686CA8526858299E300F5
:100B300065E3050AE5B7D2576346F00685461746D2
:100B4000000013062672CA8526858299E30195E185
:100B5000D2576257D98F81E71C40858BB1DFE2867F
:100B60005E86CA8526858299FD57E302F5DE014A35
:100B7000130BA401FD5BD257B307F040634BFA009F
:100B8000E2565686CA8526858299FD57E316F5F208
:100B90007DBB85465A86CA8526858299E30975DB21
:100BA000050AD1BF3C4C625A63D347013E8A635A5F
:100BB0004001D2865686CA8526858299FD57E3086C
:100BC000F5D8814C130DA401FD5D09A885466A8600
:100BD000CA8526858299E30CB5D7850C032B84053D
:100BE000D28763530A008147B307FB40E3C0FCFE92
:100BF0005257E257634DF7021C40858B8DEBE2574D
:100C00005257338AE7406344EB00338A6741635BA2
:100C10004001D28633866A01CA8526858299FD57AE
:100C2000E307F5D2814A130BA401FD5B15A0E28610
:100C30005E86CA8526858299FD57E312F5FC01BBC5
:100C400085465A86CA8526858299E30275D1850A2A
:100C50005257E257998F528763530A000147998F81
:100C6000E3C0FAFE91BDE25605476344D700858B89
:100C7000B5C785465686CA85268582997D5AE3087A
:100C800045CDE2865E86CA8526858299E30145CDFB
:100C900028446C4401468146EF3000381DC9E256B5
:100CA00013861A00CA85FD1626858299E30145CB75
:100CB000DA8613060405F9B585465686CA85268563
:100CC0008299E30675C9050AE257FD17E346FAFE65
:100CD000C5B7014A930AA401FD5BFDB78546568658
:100CE000CA8526858299E31595FD95B18546568678
:100CF000CA8526858299E30C65C5050A5C4472574E
:100D0000998FE345FAFE6DBB014A930A94017D5B1E
:100D1000F5B7797156CA9C49BA8A984522D426D229
:100D20004ECE52CC06D64AD05AC85EC6AA892E8468
:100D3000B284368A63D3E700BA879CC00347340481
:100D400019C385079CC01C4093F7070281C79C40CC
:100D500089079CC00329040013796900631A0900FC
:100D6000130B9401FD5B5C449840998F634CF9042C
:100D70001C408346340493F70702B336D000A5EB3A
:100D800013063404D2854E85829AFD576303F50419
:100D90001C4011469840998B544481446397C70086
:100DA000B384E64063D3040081441C441848635470
:100DB000F700998FBE94014969047D5B639824050F
:100DC000014509A885465A86D2854E85829A631EBA
:100DD00075017D55B250225492540259F249624A2B
:100DE000D24A424BB24B456182800509ADBF330701
:100DF000D40013060003A301C704034754049387D8
:100E00001600A2978906A381E7049DBF8546228626
:100E1000D2854E85829AE30E65FB050945B7797147
:100E200022D426D24AD04ECE06D652CC56CA5AC862
:100E3000B689942D930790063289AA842E8413864E
:100E40003504638DF60263E2D70693078005638657
:100E5000F61863EDD700638E062093073004638F86
:100E6000F60A930A24042301D404D1A09307300680
:100E70006386F60A93074006E395F6FE1C40084396
:100E800093F6070893054500CDC61C410CC363D8F3
:100E900007001307D002B307F040A301E40497460C
:100EA00000009386663C29476DA89307000763827C
:100EB000F61663E5D7029307E0066389F6189307F1
:100EC000F006E390F6FA0C401C4313F8050813856E
:100ED00047006308080608C39C438DA89307500782
:100EE000E383F6FE930780076389F61293073007C2
:100EF000E399F6F61C43D04181459386470014C31D
:100F000083AA07005685EF10001901C53305554126
:100F100048C05C401CC8A301040461A81C43930A98
:100F20002404938647009C4314C32301F40485479B
:100F3000D5B793F607041C410CC3B1DAC207C187C9
:100F4000B9B793F5050408C3C1D99E231307F0066A
:100F50006386E60E97460000938606312947A30173
:100F600004044C400CC463C5050008406D9908C0DA
:100F700099E3B28A89CDB28AB3F5E702FD1AB69534
:100F80008C212380BA00B3D5E70263FFE70AA147AB
:100F9000631EF7001C40858B91CB58401C4863C7EB
:100FA000E70093070003A38FFAFEFD1A33065641AC
:100FB00010C84E87CA867000A2852685993B7D5A47
:100FC000631D450B7D55B250225492540259F2498B
:100FD000624AD24A424B45618280A382D504974639
:100FE0000000938666280C40084313F805081C414E
:100FF0001105630D080208C313F7150001C793E537
:1010000005020CC04147A1FF0C4093F5F5FD0CC053
:10101000B9B79C4193E707029CC193078007A302DD
:10102000F404974600009386662575BF13F80504FF
:1010300008C3E30308FCC207C1837DBF97460000D5
:1010400093868622214721BFAE873DB794411C433A
:10105000CC4913F80608138547006306080008C347
:101060009C438CC339A008C393F606049C43F5DA6D
:101070008EA323280400B28A2DBF14485686CA8541
:1010800026858299E30045F51C40898B8DE7B247A0
:101090004844E35AF5F23E853DB785465686CA85F3
:1010A00026858299E30065F3050A5C443247998FEF
:1010B000E345FAFEE9BF014A930A94017D5BF5B767
:1010C00039713EDA2ED232D436D63AD842DC46DEF8
:1010D0009387418122CC804326CA06CEAA8411C4BC
:1010E0001C4C81E72285EF0010620C4454102686C8
:1010F000228536C6EF10B014F2406244D24421611A
:101100008280AA87850703C7F7FF6DFF3385A74055
:101110007D158280011122CC1C49804906CE26CA49
:101120004AC84EC652C456C263C187127D141318F2
:10113000240093894501338A0901130945014A981E
:1011400083270A00032708008507B354F702636664
:10115000F706C1684E834A8E814E014FFD18110378
:101160000326C3FF110E337716014182330797021E
:1011700033069602769793560701B3771701B307A4
:10118000FF4036968326CEFF935E06013376160126
:1011900033F71601BA97C18213D70741918EBA96D9
:1011A00013DF0641B3F71701C206D58F232EFEFECB
:1011B000E3776AFA83270800BDCBAA8AEF1060485C
:1011C0006349050441668504CA8501457D16910978
:1011D00003A8C9FF98419105B376C800158DB37671
:1011E000C700AA96935707011358080113D7064161
:1011F000B3870741BA9713D50741F18EC207D58F40
:1012000023AEF5FEE3753AFD93172400CA97984381
:101210001DC72685F2406244D2444249B249224A5F
:10122000924A056182808327080089E77D1471183E
:10123000E36B09FF00C951B7984309E77D14F11723
:10124000E36CF9FE23A88A00E9B70145E1B775719F
:101250003ED85C5122C526C34AC1CEDED2DCE2D4E0
:1012600006C7D6DADAD8DED6E6D2EAD0EECE36C275
:101270003AC646CAAA842E843289C2892E8A328C02
:1012800089EF4145EF007060C8D023220500232478
:1012900005002320050023260500DC508C4389CD62
:1012A000D84385472685B397E7009CC5D8C1EF0092
:1012B0009073DC5023A00700635309048547131C77
:1012C000190023A0F900135C1C00B707F07F3377E7
:1012D000FC006314F70642578967320C9387F77056
:1012E000135CCC001CC3336C8C00E3060C30D2477B
:1012F00091EB97470000938727FF3EC039A823A0B2
:101300000900E1B797470000938707FE3EC0974763
:101310000000938797FD52471CC3BA402A440245F8
:101320009A440A49F659665AD65A465BB65B265C19
:10133000965C065DF64D49618280014681462285B4
:10134000E28522CE62D4EF20304D05E14257854739
:101350001CC3974700009387E7F03EC0D247D5DF14
:1013600097470000938717F07DB7B800F4006286B6
:10137000A285268513594C01EF10C03E1379F97FE1
:10138000AA89A64A630D0910A2577245130919C00C
:101390009395C700B181B707F03FDD8D02DC974719
:1013A0000000938727EF9043D443EF30402F9747B7
:1013B00000009387A7EE9043D443EF20D062974775
:1013C0000000938727EE9043D443EF10B0762A8B2A
:1013D0004A85AE8BEF30B02A97470000938707ED20
:1013E0009043D443EF2030602A86AE865A85DE854E
:1013F000EF1050742A8BAE8BEF30F0212A84014617
:1014000081465A85DE85EF20B052635B0500228558
:10141000EF30F0265A86DE86EF20104011C17D1491
:101420000547D9473AD663E3870213173400974735
:101430000000938727F4BA979043D4437245A2558E
:10144000EF20104F635305007D1402D633892A41E3
:10145000930BF9FF014B63D60B00054B330B2B416C
:10146000814B634E0406A29B22CC814A1247A547BA
:1014700063E5E7149547854C63D6E7009307C7FFFC
:101480003EC2814C12478D47630EF71063CFE704CD
:10149000894702C8630DF70685473EC88DA03649C7
:1014A0009307000256991307294363D5E7021305F2
:1014B0000004198D930729413315AC003354F4000F
:1014C000418DEF30D022B70710FEBE9585477D19BC
:1014D0003EDCF1B53385E7403315A400DDB7330BAF
:1014E0008B40B30A804002CC51B712479147630E3C
:1014F000F70005473AC8124795476306F70AFD57B4
:101500003EC4FD5DC94702C619A885473EC8B2471B
:101510006348F00A854705473EC4854D3AC603A98E
:1015200044021147232209009306470183254900FD
:1015300063FCD7082685EF00B042DC502320A900C9
:101540009C433EC0B94763E6B71D63840C1C635ED1
:10155000800A9377F40013973700935C44409747D1
:101560000000938727E1BA9793F60C019843094945
:10157000DC4385C697460000938646DD905272454F
:10158000D452A2553AD03ED2EF20C04D02579257C6
:1015900093FCFC002A8A2E8C0D49174D0000130D78
:1015A000EDDA89A802C8B247A2973EC4938D17000E
:1015B000EE87E346B0F785479DB7854C02C2E9BD8B
:1015C000B2473EC4BE8DA1BF85052322B9000607E0
:1015D000A1BF93F61C0081CE03260D0083264D008B
:1015E0003A85BE85EF20304005092A87AE8793DC17
:1015F0001C40210DE39F0CFC3A86BE865285E28595
:10160000EF2040462A8A2E8C81A0094915CCB30CC4
:10161000804093F7FC0013973700974700009387AB
:1016200067D5BA979043D4437245A25593DC4C409A
:10163000174D0000130D8DD1EF20F03A2A8A2E8C21
:101640008147639B0C12DDFFB2576386071417476F
:101650000000130727C6104354435285E28552D039
:10166000EF20102D63590512638A0D12A2476350B3
:10167000F00A17470000130767C48257104354430A
:101680003E85E285EF203036A247130DF4FF2A8A0B
:101690002E8C050962874A853EDE52DABA8C3AD032
:1016A000EF30E07D525802573709C0FC4286BA86B7
:1016B000EF207033974600009386C6C09042D44214
:1016C000528CEF103047F2572A8A2E99F9EB974740
:1016D00000009387A7BF525802579043D4434285D6
:1016E000BA85EF20D07B5286CA862A8CAE8CEF203A
:1016F00050196343A054B7070080B3C7270152862F
:10170000BE866285E685EF20B02263440552724AA8
:10171000225CB64763C307303947634087301317ED
:101720003400974700009387E7C4BA9703AB0700DC
:1017300083AB4700B24763D10720634FB01F639A62
:101740000D4E97470000938767B89043D4435A855E
:10175000DE85EF2050295286E286EF209012814AE2
:1017600001496353054A824702470504138A17005B
:10177000930710031CA369A913F71C0009CB0326C8
:101780000D0083264D000509EF20F025854793DCE9
:101790001C40210D7DB5228DEE87EDBD228D814748
:1017A000D5BD9386F7FF13963600974600009386C3
:1017B00066BCB2968842CC428246B6973EDAC247B1
:1017C000E9C3974700009387E7B02A86AE8688432F
:1017D000CC434ADE52D0EF20E02802587257174916
:1017E00000001309A9AD4286BA86EF20506B024A69
:1017F0002AD02ED2E6856285EF30E0612ADEEF3016
:1018000000682A86AE866285E685EF205069F25729
:101810002A8CAE8C2A86AE8602559255050A93878D
:101820000703A30FFAFEEF20D0056348A00E9747E9
:101830000000938727A88843CC436286E686EF2082
:1018400010662A86AE8602559255EF2090036342B9
:10185000A018D257E30DFAEA0326090083264900AF
:1018600002559255EF2030180326090083264900BF
:101870002AD02ED26285E685EF20F0162A8CAE8C17
:1018800095BF5286CA86EF201016525A02492AD0B6
:101890002ED2E6856285EF3000582ADEEF30205EDA
:1018A0002A86AE866285E685EF20705F7257D25732
:1018B000050913070703A30FE9FE2A8CAE8C6312F8
:1018C000F906174900001309E9A003260900832639
:1018D000490002559255EF10F0252A86AE866285A2
:1018E000E685EF20007A6346A00E02569256032545
:1018F000090083254900EF20905A2A86AE8662852A
:10190000E685EF20F00293070003E35205E003476A
:10191000FAFF9306FAFF6304F7006A8459A8368A2F
:10192000FDB797470000938767999043D443EF2012
:10193000900B2A8CAE8CB1BFE287BE8C8247528C52
:10194000974A0000938A8A9713891700BE9D5A868A
:10195000DE866285E685EF20E010EF30C04B2A8DF1
:10196000EF30E0515A86DE86EF20F0072A86AE86F9
:101970006285E685EF20B05293070D03A30FF9FEB1
:101980002A86AE864A8A639B2D07EF10B01A5A86C4
:10199000DE862A8CAE8CEF20C06E634BA0025A8686
:1019A000DE866285E685EF20206701E593771D00DE
:1019B00085E3CE852685EF001003C25723000A0079
:1019C000050480C3D247E38A079423A04701B1B23C
:1019D000228D130790038346FAFF9307FAFF63995A
:1019E000E6008246639AF60013070003050D98A2ED
:1019F0009823050798A315B73E8AF1BF03A60A00EE
:101A000083A64A000509EF20007E014681462A8C04
:101A1000AE8CEF20606005FD69BF42476300071090
:101A2000924605476345D70C62579387374309E7CA
:101A3000264793076003998F568DDA8C8545268556
:101A40003E9BBE9BEF0070122A89635E9001635C2F
:101A50007001E68763D39B01DE87330BFB40B38CB9
:101A6000FC40B38BFB4063800A04C247C5CF63547C
:101A7000A003CA856A862685EF00F0244E86AA85D3
:101A80002A892685EF0010102ACECE852685EF0004
:101A90008075F247BE893386AA4111C6CE85268558
:101AA000EF007022AA8985452685EF00100CE247D9
:101AB000AA8A635BF0063E86AA852685EF00B020E1
:101AC00012478547AA8A014D63C8E706014D631294
:101AD0000A069317CC00528DA9EFB705F07F337C2F
:101AE000BC0063080C04050B850B054D99A0138DF4
:101AF000FDFF63CAAA01338DAA4163DE0D00B30C5A
:101B0000BB41814725BFE247B30A5D41D6973ECC32
:101B1000EA8A014DDDB7DA8CEE870DB7568DDA8C87
:101B2000014925B756869DBF12478547014DE3DF22
:101B3000E7F8E247054589CF83A70A018D078A07A1
:101B4000D697C843EF006077930700023385A7401C
:101B50005E957D8951C193070002898F1147635AB1
:101B6000F706F1473385A7402A9BAA9CAA9B635896
:101B70006001CE855A862685EF001020AA89635819
:101B80007001D6855E862685EF00101FAA8AB2579F
:101B9000B1C7D6854E85EF00D02A63510504CE85A6
:101BA000814629462685EF002068C2477D14AA8910
:101BB00063810726CA85814629462685EF00C066CF
:101BC000A2472A896342F0081247894763DEE70685
:101BD00029A8E38EE7F83E85710579B76342B0071F
:101BE0001247894763DEE7046EC4A24791EFD685AA
:101BF000814615462685EF002063AA8AAA854E8570
:101C0000EF003024E341A0B6B247024A13C4F7FF05
:101C1000014BD6852685C12BE30D09D863070B0040
:101C200063052B01DA8526857D2BCA852685652BE4
:101C300049B3814A0149C9BF6A84814A014925B62D
:101C4000C2476EC4638E071C63589001CA856686BE
:101C50002685EF0070122A894A8563040D028325C8
:101C600049002685F529032609012A8B9305C90019
:101C700009060A06310525290546DA852685EF007D
:101C8000B00F824722474A8B138C1700BA973EC683
:101C900093771A002A893EC4D6854E85EFF08FC708
:101CA000DA852A8D930D05034E85EF0090194A863B
:101CB000AA8BD6852685EF00F01B5045930CFCFFC0
:101CC0002A8A054711E6AA854E85EF0090172A87D4
:101CD000D28526853AC8012B92474247628AB3E6ED
:101CE000E700A247DD8E81EE130790036388ED04C1
:101CF00063547001930D1D032380BC0119BF63CA97
:101D00000B009247B3EB7701A247B3EBFB0063955F
:101D10000B04E353E0FECE8505462685EF00D00593
:101D2000D685AA89EF00F0116346A00071F513F77C
:101D30001D0079D313079003E39EEDFA93079003F8
:101D40002380FC00930690038347FAFF1307FAFFF2
:101D50006388D708850761A8635BE00013079003D9
:101D6000E38EEDFC93871D002380FC005DB5B24738
:101D7000A30FBCFF638D8703CE8581462946268548
:101D80006521AA8981462946DA85268563172B01B4
:101D900061292A8B2A89050C01B77921CA852A8BEA
:101DA00081462946268549212A89F5B7014BCE85EA
:101DB00005462685EF00407CD685AA89EF0070088D
:101DC000E342A0F801E593F71D00ADFF9307000380
:101DD0000347FAFF9306FAFFE31DF7E2368ACDBF09
:101DE00082476398E70002470504930710031CA38A
:101DF0000DB53A8A91BF5247973700009387074E37
:101E00003EC0973700009387E74D631607D06FF009
:101E1000CFD0A2476346F00012478947E3C7E7DC0B
:101E2000024AD6854E85EFF0EFAE8247050A930D44
:101E300005033307FA40A247A30FBAFFE358F7F6AA
:101E4000CE85814629462685C526AA89D9BF411156
:101E500022C406C62A844EA572A52320050023228B
:101E60000500232405002322050623280500232A34
:101E70000500232C0500214681451305C505EFE02B
:101E80002FAE971700009387E7E65CD09717000006
:101E9000938707E91CD4971700009387E7EC5CD47D
:101EA00097170000938747EF00D01CD8B240224418
:101EB00041018280971500009385E522B1A241116E
:101EC00026C2130680069384F5FFB384C4024AC079
:101ED0002E8922C406C693854407EF00B0222A84C7
:101EE00001CD2320050023222501310508C41386D6
:101EF00084068145EFE0CFA62285B2402244924479
:101F00000249410182801C4DADE3411106C622C445
:101F100097070000938747FA1CD5938781819C43DC
:101F20002324050423260504232805046314F5004F
:101F300085471CCD2A841D2848C02285052808C451
:101F400022852D2048C44840014691450937084460
:101F50000546A545ED3D48440946C945CD3D854763
:101F60001CCCB2402244410182808280411193877F
:101F7000818126C284434AC006C69C4C22C42A8959
:101F800099E326854937938484048044DC40FD1717
:101F900063D607009C40B9CF8440C5BF0317C40077
:101FA00039E7C17785072322040623200400232272
:101FB0000400232404005CC423280400232A040012
:101FC000232C0400214681451305C405EFE04F99F9
:101FD000232A0402232C04022324040423260404B9
:101FE0002285B24022449244024941018280130476
:101FF000840671BF91454A85D93588C051FDB147E6
:102000002320F9000144E9BF797122D44AD052CC8F
:1020100056CA5AC85EC606D626D24ECE2A8AAE8A7E
:10202000130485040149054BFD5B09ECB2502254B1
:102030004A8592540259F249624AD24A424BB24B03
:1020400045618280044483294400FD1963D409005A
:102050000040E1BFDE24637BFB008397E4006387DD
:102060007701A6855285829A3369A90093848406F4
:10207000E9BF938741819C43885309E517E5FF1F1A
:10208000130545001305050F828093874181AA85BA
:1020900088436F00300793F5F50F2A966314C50047
:1020A000014582801C21E38EB7FE0505C5BFB3C77D
:1020B000A5008D8B3307C50081E78D4763EDC70011
:1020C000AA87637EE508942185078505A38FD7FE3F
:1020D000E3EBE7FE828093763500AA8789CA9421D4
:1020E00085078505A38FD7FE93F63700C5BF937686
:1020F000C7FF138606FE63F0C70683A3050083A20D
:10210000450083AF850003AFC50083AE050103AE74
:10211000450103A3850183A8C5019385450223A03A
:10212000770003A8C5FF23A2570023A4F70123A625
:10213000E70123A8D70123AAC70123AC670023AE78
:1021400017019387470223AE07FF75B790419107A8
:10215000910523AEC7FEE3EBD7FEE3E6E7F6828008
:102160005C51411122C44AC006C626C22A842E8967
:1021700081EF4145193F48D0232205002324050063
:1021800023200500232605004450DC4495C7585001
:10219000931729005847BA9788431DED8544B39497
:1021A0002401138654000A0685452285692511CD30
:1021B0002322250104C51DA0130610029145228586
:1021C0009D2D5C50C8C4DC47F9F30145B240224460
:1021D0009244024941018280184198C32328050096
:1021E00023260500E5B75C51011122CC06CE2A84D6
:1021F00091EF41452EC6513DB24548D023220500FE
:1022000023240500232005002326050091C95450EE
:10221000DC4113972700DC46BA97984398C18CC3DA
:10222000F24062440561828079714ECEAA8941658F
:1022300022D426D22E84844906D64AD0D10501481C
:102240007D159C419105050833F7A7003307C702A8
:10225000C183B387C702369793560701698FB69734
:1022600093D60701C207BA9723AEF5FEE34B98FC5D
:102270008DCE1C4463C4F4024C404E8536C68505A1
:10228000C53510489305C4002A8909060A06310598
:10229000393DA2854E85813FB2464A8493874400EA
:1022A0008A07A297D4C3850404C82285B250225459
:1022B00092540259F249456182804177698FAA8719
:1022C000014519E3C2074145370700FF7D8F19E338
:1022D0002105A207370700F07D8F19E3110592074A
:1022E000370700C07D8F19E309058A0763C9070016
:1022F0001397170005056344070013050002828049
:102300001C4113F777000DC393F61700014799E6B8
:1023100013F7270011C785831CC105473A858280C2
:1023200089831CC10947DDBF93960701C18201471C
:1023300099E2C183414793F6F70F99E22107A18300
:1023400093F6F70099E21107918393F6370099E22B
:102350000907898393F6170081E68583050799C3EA
:102360001CC16DBF1307000255BF411122C42E844A
:10237000854506C6F53340C9B2402244054718C911
:102380004101828098491C4A797126D206D622D40E
:102390004AD04ECEAE846354F700B2842E8683A911
:1023A0000401032906019C44CC403384290163D3F2
:1023B0008700850532C66D33324613084501131375
:1023C00024004293C28763ED67029385440193988A
:1023D00029005106131E2900C166AE98329EFD16D3
:1023E0006364C60363568000711383270300F1CB37
:1023F00000C9B250225492540259F2494561828078
:1024000023A007009107C1B7832F0600B3FFDF00A9
:10241000638A0F04428FAE82814403A702008323A4
:102420000F00110FB37ED700B38EFE03B3F7D300B6
:1024300093D303019102BE9E93570701B387F7031D
:10244000A69E13D70E01B3FEDE009E97BA9793D4D3
:102450000701C207B3E7D701232EFFFEE3EF12FB0C
:1024600023209F0083522600638A020483270800EA
:10247000C28E2E8F814F03270F0083D32E00F58F3E
:10248000758F33075702910E110F1E977E97931F7A
:102490000701B3E7FF0023AEFEFE8357EFFF83AFD4
:1024A0000E004183B3875702B3FFDF00FE97BA9750
:1024B00093DF0701E3611FFD23A0FE001106110851
:1024C00005B77D1405B7011126CA4AC84EC606CE07
:1024D00022CC52C4937736002A89B284AE8981CF48
:1024E000FD1717370000130767F58A07BA9790435F
:1024F00081461D3BAA898984BDC48327490289EF8F
:10250000414561362322A902232205002324050028
:102510002320050023260500032A490203248A00FC
:1025200011E8930510274A8589352324AA002A84B7
:102530002320050093F7140091CBCE8522864A858F
:1025400091352A8ACE854A857939D289858481CC8C
:10255000084001E92286A2854A852D3508C023203E
:1025600005002A84C1BFF24062444E85D2444249EC
:10257000B249224A05618280797126D2AE844ECE5C
:1025800083A9040122D4CC41135456409C44A299FF
:102590004AD056CA06D652CCAA8A1389190063C2F9
:1025A0002709568532C66D3E3246930745012A8A71
:1025B000BE860147910663498706635304000144C0
:1025C00094480A04338787008A06938744017D8AEA
:1025D000BE9639CE130800023308C84081458843AF
:1025E000110791073315C500C98D232EB7FE83A5AA
:1025F000C7FFB3D50501E3E4D7FE0CC399C1138926
:1026000029007D1923282A015685A685E93EB25066
:102610002254528592540259F249624AD24A456183
:10262000828085058607A5BF23AE06FE050759B73C
:10263000910703A6C7FF1107232EC7FEE3EAD7FEC3
:10264000C9B71C499849998F8DE30A075105D105EF
:10265000B306E500BA95F116F1159042984163086A
:10266000E600FD576363E60085473E858280E364AC
:10267000D5FEE5BF011126CAAE844EC6B285AA8931
:10268000268522CC06CE4AC83284653F05E18145C5
:102690004E85EFF0FFAC85471CC9232A0500F240A8
:1026A0006244D2444249B249056182800549634689
:1026B0000500A28701492684BE844C404E85EFF078
:1026C0003FAA0323040183A8040113064401131E37
:1026D0002300138844018A08C16E23262501329EF7
:1026E000C29893064501014FFD1E1842832F080032
:1026F0009106B375D701B3F7DF01FA959D8D93DF8E
:102700000F0193570701B387F74113D70541BA97D4
:1027100013DF0741B3F5D501C207CD8F110823AEF2
:10272000F6FE1106E36318FDC165FD156368C60179
:10273000F1169C4295C72328650095B71C42910667
:10274000110633F7B7007A9713580741C183C29730
:1027500013DF07416D8FC207D98F23AEF6FEF9B79D
:102760007D13F9B7797122D42E84854526D24AD0BB
:10277000B2844ECE52CC3A8906D6368AEFF05F9EAE
:10278000370710009307F7FFE58FD18093F4F47FAC
:10279000AA89ADE03EC625C4280022C49536A246CB
:1027A00021CD324793070002898FB317F700D58FE9
:1027B0003357A70023AAF9003AC6324423AC890054
:1027C00033348000050423A88900B9C49384D4BCA1
:1027D000AA949307500323209A003385A74023200F
:1027E000A900B25022544E8592540259F249624ACD
:1027F00045618280D98F79BF23AAD9007DBF680047
:10280000EFF01FB0B24713050502054423AAF900F3
:10281000854723A8F90055BF931724001305E5BC8D
:10282000CE972320AA00884B1604EFF01FA9098C2D
:10283000232089007DB73386C502011122CC06CE44
:10284000B28532C6C1202A8409C532468145EFD0FF
:102850003F912285F240624405618280DDC183A7F9
:10286000C5FF411122C406C626C21384C5FF63D327
:1028700007003E94AA84EF009021938781829C43B5
:1028800081EF2322040023A481822244B2402685C2
:10289000924441016F00D01F637EF400144033075F
:1028A000D4006396E7009843DC43369718C05CC0B9
:1028B000D9BFBA87D84319C3E37DE4FE9443338676
:1028C000D700631F86001040B29694C33386D700AA
:1028D000E31DC7FA10435843B29694C3D8C375B7E3
:1028E0006375C400B1479CC04DB71040B306C40027
:1028F0006316D70014435843B29614C058C0C0C3DF
:1029000069B78280011126CA93843500F19806CEFA
:1029100022CC4AC84EC6A104B14763F3F404B144C3
:1029200063E2B4042A89EF0090169387818298436A
:102930003A8439E09387C1829C4391E781454A8577
:10294000592623A6A182A6854A85B52EFD5963196D
:102950003507B1472320F9004A85EF00701329A0FD
:10296000E3D004FCB1471CC10145F2406244D244AB
:102970004249B249056182801C40858F63CF0702BE
:10298000AD4663F6F6001CC03E9404C031A05C4026
:102990006313870223A4F1824A85EF00700F1305A9
:1029A000B4009307440061993307F5405DDF3A9422
:1029B000898F1CC05DBF5CC3C5B72287404095BFEF
:1029C000130435007198E30285FCB305A4404A85E1
:1029D000DD2CE31C35FBB5BF1C46FD171CC663D9B7
:1029E0000700184E63C5E700A9476393F50075A675
:1029F0001C422E851387170018C28CA382800111F8
:102A000022CC26CA4AC84EC652C406CE2A89AE89EE
:102A10003284B304D6007D5A63149400014501A8A2
:102A20000C204E864A854D3F0504E31745FFF240D2
:102A30006244D2444249B249224A056182803571DA
:102A400022CD26CB4AC94EC706CF52C556C35AC15E
:102A5000DEDEE2DCE6DAAA89AE843289368409C594
:102A60001C4D99E3EFF02FCA973700009387078A30
:102A70006398F40C83A44900DE24A18BE5C79C482D
:102A8000F5C393070002A304F1029307000302D2E7
:102A90002305F10222C6930B5002973A0000938A55
:102AA000AA9A054C294B4A841C2099C3639E770D32
:102AB000B30C2441638D0C00E6864A86A6854E85BC
:102AC0003D3FFD57630FF51C9256E69636D21C200B
:102AD0006389071CFD571309140002C802CE3ECAC1
:102AE00002CCA309010482D483450900154656850A
:102AF000EFF06FDA13041900C24749E913F7070131
:102B000009C713070002A309E10413F7870009C7E7
:102B10001307B002A309E104834609001307A002CA
:102B2000638EE606F2474A848146254618209305BF
:102B30001400130707FD6376E60AADCA3ECEBDA0BA
:102B4000972700009387877E6395F40083A489000C
:102B500025B79727000093876779E39FF4F083A454
:102B6000C90019BFA6854E85392E01DD7D55FA4075
:102B70006A44DA444A49BA492A4A9A4A0A4BF65BF5
:102B8000665CD65C0D618280050439BF3305554112
:102B90003315AC00C98F3EC82289B9B732479306B6
:102BA0004700184336C6634707023ACE18209307FA
:102BB000E002631DF70418309307A002631BF702BD
:102BC000B2470904138747009C433AC663C1070212
:102BD0003ECA2DA83307E04093E727003ACE3EC80F
:102BE000F1B7B387670385462E84BA9781B7FD573F
:102BF000C5B7050402CA81468147254618209305BA
:102C00001400130707FD6376E606F9F20C200D4663
:102C1000173500001305C583EFF0EFC711CD9737C7
:102C200000009387E7821D8D93070004B397A700E8
:102C3000424505045D8D2AC80C2019461735000051
:102C400013054581130914002304B102EFF0AFC44A
:102C500025C197E7FFFF938707C095E74247B24733
:102C60001377071009CF91073EC69257D2973ED2ED
:102C70001DBDB387670385462E84BA9741B79D076C
:102C8000E19BA107D5B7780097060000938666D729
:102C900026860C084E85EFD0DFBBFD572A8AE31647
:102CA000F5FCDE2493F70704E39207EC1255C1B557
:102CB0007800970600009386C6D426860C084E85B9
:102CC000EFE0EF95D9BF411122C42A842E8523A8B5
:102CD000018206C6EFD0BF9EFD576317F5009387AC
:102CE00001839C4391C31CC0B240224441018280B5
:102CF000411122C42E848395E50006C6592B6349F1
:102D000005007C48AA977CC8B240224441018280D9
:102D10005E247D777D17F98F5EA4FDB7DE25011156
:102D200022CC26CA4AC84EC606CE93F70710AA84FC
:102D30002E843289B68991C78395E500894601467C
:102D400021215E247D777D17F98F5EA48315E40031
:102D50006244F240CE864A86B24942492685D24430
:102D60000561DDA8411122C42E848395E50006C6C5
:102D7000E12EFD575A24631AF500FD77FD17F98FF0
:102D80005EA4B2402244410182808567D98F5EA44F
:102D900068C8C5BF8395E500FDA2011122CC26CAF3
:102DA0004AC806CE4EC6AA842E89328409C51C4D57
:102DB00099E3EFF04F959727000093872755631706
:102DC000F406C0401C4C1CC45E24A18BC1C31C482B
:102DD000B5CF1C4808409379F90F1379F90F1D8D71
:102DE0005C486346F500A2852685E52C25E51C4454
:102DF0000505FD171CC41C401387170018C023804D
:102E000037015C486388A7005E24858B81CBA94786
:102E10006316F900A2852685E9240DEDF24062448F
:102E20004A85D2444249B249056182809727000011
:102E30009387C74F6314F400804469B79727000055
:102E40009387C74AE310F4F8C044ADBFA285268536
:102E50001D2841D17D59D9B7411122C42A842E851C
:102E6000B285368623A8018206C6EFD0DF81FD57E2
:102E70006317F500938701839C4391C31CC0B24044
:102E800022444101828041119387418126C28443BB
:102E900022C44AC006C62A892E8491C49C4C81E76C
:102EA0002685EFF04F869727000093872746631B00
:102EB000F402C0400317C40093170701C18393F6BF
:102EC0008700B5EA93F6070195EEA5472320F900A0
:102ED000136707045AA47D55B24022449244024924
:102EE0004101828097270000938747446314F400D0
:102EF0008044C9B7972700009387473FE31CF4FA43
:102F0000C0444DBF918B85C74C5891C99307440469
:102F10006385F5004A85EFF07F94232A04025E243E
:102F20002322040093F7B7FD5EA41C481CC05E2456
:102F300093E787005EA41C4899EB5E2413070020EA
:102F400093F707286385E700A2854A8541245E241C
:102F500013F717001DC35C4823240400B307F04097
:102F60001CCC1C480145ADFB8317C40013F70708B0
:102F700025D793E707045EA4B9BF898B014791E386
:102F8000584818C4F9BF411122C42A842E8523A8A9
:102F9000018206C6EF20C024FD576317F500938712
:102FA00001839C4391C31CC0B240224441018280F2
:102FB000DE25011122CC26CA06CE4AC84EC613F71A
:102FC0008700AA842E8461EFD841634DE000B841A8
:102FD000634AE0000145F2406244D2444249B249AA
:102FE0000561828058547DD703A904009396370168
:102FF00023A0040063DC060670485E24918B99C709
:103000005C401D8E5C5899C33C401D8E5C540C5036
:10301000814626858297FD575A24631DF50094400A
:10302000F54763E9D706B70740208507B3D7D70030
:10303000858BADC31C48232204001CC093173701A5
:1030400063D80700FD576314F5009C4091E368C8FE
:103050004C5823A02401BDDD930744046385F5008B
:103060002685EFF0AFFF232A0402ADB70C500146CE
:10307000854626850297FD572A86E310F5F89C4081
:10308000ADDF75476385E70059476393E70423A0E5
:10309000240189B7136707045AA47D552DBF83A95E
:1030A0000501E38909F203A905008D8B23A03501F1
:1030B00033093941014791E3D84918C4E35C20F151
:1030C0001C540C50CA864E86268582976347A00002
:1030D0005E2493E707045EA4C9B7AA993309A940FF
:1030E000F1BF9C49A5C3011122CC06CE2A8419C583
:1030F0001C4D89E72EC6EFE01FE1B245972700007F
:103100009387C720639BF5004C408397C50095C704
:1031100022856244F240056161BD972700009387D4
:10312000E7206394F5000C44CDB797270000938700
:10313000E71BE39CF5FC4C44C9BFF24062440145E7
:103140000561828001458280411122C42A842E8536
:10315000B285368623A8018206C6EF20A00AFD5755
:103160006317F500938701839C4391C31CC0B24051
:103170002244410182801971A6DAAE848395E5006C
:10318000A2DC86DE328463DB0500DE2423A0060099
:1031900093F707089DE39307004015A0300836C653
:1031A0003D2AB246E34305FE7247BD67F98F797742
:1031B000BA9793B717009CC2F9BF930700041CC0CD
:1031C000F6506654D654014509618280DE2501110E
:1031D00022CC06CE26CA4AC8898B2E8489CF930773
:1031E00074041CC01CC885475CC8F2406244D244C9
:1031F00042490561828074003000AA84AD3FA24537
:103200002A892685EFF00FF019E98317C40013F718
:10321000072061FFF19B93E727005EA4C9B797F7EA
:10322000FFFF938767C99CD45E2408C008C893E752
:1032300007085EA4A2475CC8B24799CB8315E40097
:103240002685E12011C55E24F19B93E717005EA45B
:103250005E243369F9002316240141BF91ED411129
:103260006C00014501CA795591C61C229CC10822F7
:103270003335A00041018280014509CA795599C6BC
:103280001C229CC108223335A0008280828082806B
:103290008280411122C42A842E85B285368623A8D5
:1032A000018206C6EF10D076FD576317F5009387AD
:1032B00001839C4391C31CC0B240224441018280DF
:1032C00089CD9307F00F63F7C7009307A0081CC1CF
:1032D0007D55828090A10545828001458280411103
:1032E00022C42A842E85B28523A8018206C6EF1047
:1032F000F06FFD576317F500938701839C4391C3DB
:103300001CC0B240224441018280411122C42A845F
:103310002E8523A8018206C6EF10106EFD57631795
:10332000F500938701839C4391C31CC0B2402244A3
:10333000410182803708100001117D183377B800F1
:1033400026CA3378D80093D4450113D34601131EFF
:1033500037004EC61357D5010E089357D60193F484
:10336000F47F1373F37F06CE22CC4AC893D9F501BC
:1033700093DEF6013367C701131F350033E80701F9
:10338000931F3600338E64406380D9196356C0138F
:103390006304031CB70680009307F07F3368D800EE
:1033A000638FF4369307800363C0C735FD4763CD51
:1033B000C747130500023305C541B3D7CF01B31684
:1033C000A8003399AF00DD8E33392001B357C8010F
:1033D00033E926011D8F33092F41B3372F013306FF
:1033E000F7409317860063D40724370780007D17C2
:1033F0003374E600630C042C2285EF1090571307FA
:1034000085FF93070002998FB357F9003316E40044
:10341000D18F3319E9006341972A3305974013068A
:1034200015007D47634DC73813070002118FB3564F
:10343000C9003319E9003397E700558F333920016C
:103440003369270133D6C70081449377790081CF50
:103450001377F90091476308F700130749003339E0
:1034600027014A963A899317860063D6071C13856D
:1034700014009307F07FCE856304F520B70780FF23
:10348000FD17F18F9398D70113593900A607B3E8B8
:103490002801B1831375F57F9396C7005205F2405A
:1034A0006244B182FE05C98ECD8ED2444249B249F2
:1034B0004685B68505618280631E0E0A138314005B
:1034C0001373E37F63170322B367E701B368F8015F
:1034D000639D041A63870740638608443309FF41EC
:1034E000B307074133362F013386C7409317860051
:1034F00063D6074C3389EF41B307E84033B62F0159
:103500003386C740F68991B76350C00F6300030C40
:10351000B70680009307F07F3368D800638AF43AD7
:103520009307800363CBC713FD4763DFC7351309D8
:103530000EFE93070002B3562801630AFE0013092A
:1035400000043309C94133192801B3EF2F0133397E
:10355000F0013369D90031A2B367F801638A071C0F
:103560009307FEFF638C07389306F07F6309DE1A2A
:103570003E8E0DBDB305934063910422B367E7010E
:10358000638707329387F5FF638107449306F07FD3
:10359000638CD520BE859307800363CCB72AFD4793
:1035A00063CFB73C930700028D8F3319F700B356F2
:1035B000BF00B317FF003369D900B337F0003357AA
:1035C000B7003369F9003308E84041ACB367F8014C
:1035D000638007349307FEFF638A07209306F07F1A
:1035E0006308DE2E3E8E2DBF631E0E1493861400DC
:1035F00093F7E67F63910734B367E7016395042C83
:103600006380073EB367F801638E07303309FF011B
:10361000B3070701333FE9013386E70193178600BB
:1036200063D70700B70780FFFD177D8E854493772A
:103630007900E39F07E09317D60193583900B3E868
:10364000F800935736001307F07F638DE404B20748
:10365000B18313F5F47FCE8581B53369F801333931
:1036600020017A99B337E9013386E7009317860082
:10367000E3DF07FA85049307F07F6396F418CE859D
:103680001305F07F8147814801BDC1EB6384083A8F
:10369000931636009317D8018D82B3E8D700F689C8
:1036A00093573800B3E7F800F9DB81451305F07F45
:1036B000B70708008148CDB3370680FF7D167D8EA1
:1036C00093777900998CE39507D8B5B74A85EF10C1
:1036D000502A13078501FD47E3D5E7D2130685FF7E
:1036E000B317C900014905BB3369F801333920011B
:1036F000DDB13309FF413306074133342F01330471
:1037000086409317840063CD0724B3688900E39350
:1037100008CE8147814981441DBFE39808F80E0512
:103720009317D7010D81B3E8A700935737009DBFCA
:103730000E059317D7010D81B3E8A700F2849357C4
:10374000370011B73305934063820412B706800037
:103750009307F07F558F630DF32E9307800363CBA0
:10376000A720FD4763C3A72A93070002898F331957
:10377000F700B356AF00B317FF003369D900B33772
:10378000F0003357A7003369F9003A987E99B337B0
:10379000F901338607019A84D1BDB70680009307EB
:1037A000F07F558FE319F3DE931736008D8393185E
:1037B000D801B3E81701F68993573800E5B5130728
:1037C00015FE9306000233D7E700630AD60093067E
:1037D00000043386C6403396C7003369C9003339C5
:1037E00020013369E9000146814491B53309FF01A5
:1037F000B30707013336E9013E96931786008544E7
:10380000E3D707E28944B70780FFFD17F18F13570D
:10381000190013791900336927019398F70133E9E7
:10382000280113D6170015B113090EFE93070002E5
:10383000B3562801630AFE00130900043309C94185
:1038400033192801B3EF2F013339F0013369D9005F
:1038500059B63369E7013339200133892F41B3B7B2
:103860002F013306F8409A84F689A5BEB367E701B5
:10387000638207189307F5FF6384071C9306F07FA4
:103880006304D5123E85D1BD93070002B387C741BB
:10389000B316F8003399FF0033D6CF01D18E3339F8
:1038A0002001B357C80133E926013E975DBB93174A
:1038B00036008D839318D801B3E81701AE8493576F
:1038C0003800F68949B3EDC33369F801E31F09DC19
:1038D0000E059317D7010D81B368F5009357370094
:1038E000D1B36381080E931636009317D8018D82E9
:1038F000B3E8D700F6899357380091BB3309FF41ED
:10390000B3070741333F2F013386E7418544D1BCDC
:103910000E059317D7010D81B368F500F284935714
:10392000370015B30E059317D7010D81B3E8A70033
:103930009357370029BB9307F07FE382F6D433090E
:10394000FF013336E901B3070701B2979398F701F6
:103950001359190033E9280113D61700B684C1B9E9
:103960003389EF413307E84033B62F013304C740B2
:10397000F68949B43369E7013339200101BD9387E2
:1039800005FE93060002B357F700638AD50093063D
:103990000004B385B6403317B700336FEF003339F7
:1039A000E0013369F90055BD931736008D839318F4
:1039B000D801B3E8170193573800EDB1B368C900D7
:1039C000E39708C68147814959B13389EF41B3076D
:1039D000E84033B62F013386C740F689854411B4D9
:1039E000931636009317D8018D82B3E8D70093570A
:1039F0003800B1B9931636009317D8018D82B3E819
:103A0000D700AA84935738003DB9930705FE930663
:103A10000002B357F700630AD5009306000433850C
:103A2000A6403317A700336FEF003339E001336945
:103A3000F900A9BB81451305F07FB7070800A9BCB1
:103A40003309FF01B30707013336F9013E9675B319
:103A5000931636009317D8018D82B3E8D700935799
:103A6000380089B1397193D7450122DC4AD856D242
:103A70002A891394C50006DE26DA4ED652D45AD0CF
:103A80005ECE13F5F77F318093DAF501630B0510F5
:103A90009307F07F630BF514135AD9010E043364B6
:103AA0008A00370A8000336A4401131B39009304EB
:103AB00015C00144814B13D846011399C6001378F1
:103AC000F87FB2881359C90093D9F601630E08082C
:103AD0009307F07F6300F8041357D6010E0933698A
:103AE0002701130818C0B70780003367F90093183F
:103AF0003600B38404418145BD4733C83A0163E4CD
:103B0000871A972700009387A7A60A043E941040BF
:103B10003E9602863367C9009384148063120710AF
:103B20001364240081488945C1BF1306F07F814793
:103B30000147B207F25062545206B1837E08D18F1A
:103B4000B3E70701D2544259B259225A925A025B42
:103B5000F24B3A85BE852161828001481306F07FD1
:103B6000B70708000147F1B73367C9004DC76308BD
:103B700009304A8532C4EF10C05F2246130755FF53
:103B8000F547930685FF998F3319D900B357F6008F
:103B900033E72701B318D60026959304353F8145B6
:103BA000A1BF336A240163030A0636C632C4630622
:103BB000042A2285EF10E05B2246B246AA8413074E
:103BC00055FF754A138B84FF330AEA4033146401AE
:103BD000335A4901336A8A00331B69011305D0C087
:103BE000B30495400144814BF9B5336A240163184D
:103BF0000A002144014B9304F07F894B6DBD228A5A
:103C00004A8B31449304F07F8D4B75B51144014BC1
:103C10008144854B4DB51364140081488545E9BD49
:103C2000136434004A878D45C1BD630A052E85475C
:103C3000898F9306800363DDF63201468147014791
:103C4000CDBDCE868947638DF53A8D47E387F5F084
:103C500085473688E383F5FE1385F43FE357A0FCE0
:103C600093F778006396072893D638009317770068
:103C700063D80700B70700FFFD177D8F1385044049
:103C80009307E07FE3C3A7EA1316D70193179700C2
:103C9000B1833367D6001376F57F61BDD686528730
:103CA000DA88DE8545B763614723630DEA20DA864B
:103CB000FD145284014B9317870013D3880133639B
:103CC000F300935E0301B357D403131F0301135F83
:103CD0000F0193D50601139E88003374D403330774
:103CE000FF024204C18D63FBE5009A951386F7FF3E
:103CF00063EE652663FCE526F9179A95998D33D70F
:103D0000D503C206C182B3F5D5033306EF02C2055F
:103D1000D58D63FBC5009A959306F7FF63E665248E
:103D200063F4C52479179A95C20741645D8F9307A0
:103D3000F4FF3375F70093580701935F0E01B377D3
:103D4000FE00B302F502B386C540B383F80293D5F3
:103D500002013386AF021E962E963385F8036373F5
:103D600076002295C168FD18935506013376160139
:103D70004206B3F81201AA95469663E6B61263822C
:103D8000B6123306CB408D8E333BCB00338B66416E
:103D90001385F43F630C6317B358DB039355060197
:103DA000337BDB03B3061F03420B33EB6501637BFD
:103DB000DB001A9B9385F8FF636D6B20637BDB2030
:103DC000F9181A9B330BDB40B356DB0342064182E2
:103DD000337BDB03330FDF02420B33666601637B09
:103DE000E6011A969385F6FF6367661E6375E61F04
:103DF000F9161A96C208B3E8D8009395080193D231
:103E00000801C181B38EF5023306E641B385BF02D6
:103E100093D60E01B387F202BE95AE96B38F5F02C2
:103E200063F4F600C167BE9FC165FD1593D7060117
:103E3000ED8EC206B3FEBE00BE9FF696637FF60906
:103E40001A969387F8FF6369661A6368F619630F19
:103E5000F61BBE8893E8180011B54A85EF10603153
:103E600013075501F145930405022246B246E3DAF1
:103E7000E5D4130485FF331A8900014B85B33285DD
:103E800032C4EF10002F13075501F146AA872246CE
:103E900013050502E3D6E6CEE1173317F600814895
:103EA000E5B9E370CBEE729B3335CB011A95AA9638
:103EB0001305F7FF6378D30263E6B6106382D5106B
:103EC0002A87C1B5E3651BDF93551B009316FA01E2
:103ED00013541A00CD8E7E0BF9BBE31DF6F7E38F6A
:103EE00006D6B9BFE31ED3FCE378CBFD2A8751BDCC
:103EF00093F7F8009146E389D7D693B7C8FF938626
:103F0000480093C717008D823E978DB38146854741
:103F1000E34CA0FEFD58E31C05D0930410C0854778
:103F20001385E441B316A70033D6F8003395A800F3
:103F3000D18E3335A000C98E13F676003357F700C3
:103F400001CE93F7F60011466388C70093874600B9
:103F5000B3B6D7003697BE869317870063D8070499
:103F6000054681470147F1B636877DBBB28779B3F5
:103F7000FD46E3D7F6FA0556098E9306000233563E
:103F8000C7006388D7009387E443B317F700B3E80B
:103F9000F800B3361001D18E13F67600814701CEBA
:103FA00093F7F60011460147E392C7FA931797007B
:103FB0001316D701B18313D73600518F014695BE32
:103FC000E370CBF0729B3335CB011A957917AA9623
:103FD0004DBBAE88C5BBAE8631BD93171E0033BE48
:103FE000C70172931A96F9183E8EE315F6E7E307B8
:103FF000DEC693E818009DB1BE88E30AF6FF99BDBE
:1040000036881306F07F8147014725B6E367DEFC5B
:10401000BE88E310DEFE99B113D74501B707100043
:10402000FD1713D846011377F77F9308F07F33FE0F
:10403000B700AA8EF58FFD81328F1378F87FFD824D
:10404000630B170105436306180163140701630D31
:10405000FE001A858280B368AE000543E39B08FE2C
:10406000E319E8FED18FF5F70543E394EEFF014332
:10407000E381D5FE054371FF3365AE003333A00005
:10408000C9BF13D74501B7071000FD1713D8460164
:104090001377F77F9308F07F33F3B7002A8EF58FFD
:1040A000FD81B28E1378F87FFD82630817036300E9
:1040B00018030DEBB368A300631408005D8E29CAD2
:1040C000638508046388D502054595ED8280B3E8D1
:1040D000C700E38008FE795582803365A30065FD43
:1040E000630CE802631408005D8E79DEE39ED5FC64
:1040F000E34CE8FC63480701E3E867FC6303F30271
:10410000637FF30081E57D558280F5DE0545828081
:104110000145E39B08FA82805D8E69DA6DBF014537
:104120008280E3E3CEFB0145E372DEFBE5F1E1BF14
:1041300013D74501B7071000FD1713D846011377B1
:10414000F77F9308F07F33FEB700AA8EF58FFD81CD
:10415000328F1378F87FFD82630E1703630D180109
:1041600029E3B368AE00631F08005D8E01EE0143D2
:10417000638C080421A8B3E8C700094363960804C8
:104180006DD305A0638408046385D50205438DCDF6
:104190007D531DA8B368AE00094363970802630A04
:1041A000E802631408005D8E75D2E391D5FEE34FFB
:1041B000E8FC63490701E3EBC7FD630FFE00014321
:1041C0006374FE00F1D505431A858280EDFE7D53B0
:1041D000E5BF5D8E79DACDBFE36ADFFB0143E3F52E
:1041E000EEFFF5F175B739714AD813D945014ED6AE
:1041F00052D456D29399C50006DE22DC26DA5AD074
:104200005ECE1379F97F2A8A93D9C90093DAF50132
:10421000630D090E9307F07F6306F9181354D50157
:104220008E09B36934013704800033E489009314A4
:104230003500130919C08149814B13D74601139AE0
:10424000C6001377F77FB285135ACA0013DBF60155
:10425000630B07109307F07F6303F7049357D601AE
:104260000E0A33EA4701130717C0B7078000B36788
:10427000FA00931536003A99814833C76A01BD4662
:104280003A851308190063E836171716000013065D
:1042900026328A09B29983A60900B2968286B3674C
:1042A000CA001309F97F6399071293E92900814530
:1042B0008948E1B701479307F07F3704080081443C
:1042C0003204D20731807E075D8C598CA285F25072
:1042D000625426854259D254B259225A925A025BEC
:1042E000F24B216182805A853E84AE84C68B894719
:1042F000638DFB0E8D47E38FFBFA85472A87639E0C
:10430000FB3881470144814465BF33E4A90061C0A3
:1043100036C632C4638C092A4E85EF00906522466A
:10432000B246AA87130755FF7544938487FF198CFB
:10433000B399990033548A0033643401B3149A005A
:1043400013D746011309D0C0139AC6001377F77F1D
:104350003309F9408149814BB285135ACA0013DBF6
:10436000F601E31907EEB367CA00B1C7630F0A226B
:10437000528532C4EF00F05F22462A87930655FF2C
:10438000F547930587FF958F331ABA00B357F600A8
:10439000B3E74701B315B6003309E9401309D9C0A3
:1043A0008148E1BD33E4A90001ECA149814413092E
:1043B000F07F894B59B593E919008145854875BD52
:1043C0004E84AA84B1491309F07F8D4BBDB5914944
:1043D00081440149854B95B593E93900D2878D48D1
:1043E00069BD89475685E397FBF02A879307F07FDD
:1043F00001448144F1B5C16E1386FEFF93D60401DA
:1044000013DE0501F18CF18D338695023383B602FC
:104410009358060133059E021A95AA98B382C603E3
:1044200063F36800F692C16F1383FFFF33F56700F3
:1044300093D30701B3F76800C207337366003E9356
:104440003306950293D80801B387A602135F0601CD
:10445000B3849302BE94FA94B38E760263F3F400AD
:10446000FE9E416A9307FAFF935F0401B376F4005E
:10447000B3F9F4007D8EC1803384D502C209338F35
:10448000D401B299CE98B307DE02935E0401B385DE
:10449000BF02AE97BE9E330EFE0363F3BE00529E74
:1044A000C1679385F7FF33F6BE006D8C42062296F6
:1044B00093DE0E01B305D502769E3385AF0213D489
:1044C0000501B386D302AA96A296B38FF30363F3D2
:1044D000A600BE9F41657D15B3F7A600C2076D8D8E
:1044E000AA97B3855800B3B93501FA97B2953384CA
:1044F000370133B6C500B30EC4013385CE00333463
:104500003401B3B7E701C18F33BECE0113D4060126
:104510003336C5003E943366CE00939495003294B2
:104520007E94B3E46400260493567501B33490007E
:10453000DD8193179500CD8C558CDD8C931774001D
:1045400063DB070093D7140085889316F401DD8C94
:10455000D58C058042899307F93F6359F00893F69B
:10456000740081CE93F6F40011466388C6009386EA
:104570004400B3B496002694B6849316740063D8AE
:104580000600B70700FFFD177D8C930709409306CF
:10459000E07F63CFF60E93D634009314D401260443
:1045A000D58C318093F7F77F21BB328532C4EF0081
:1045B000503C93065501F147130705022246E3D10B
:1045C000D7DC6115B317A6008145F9B3EF00703A47
:1045D00013075501F145930705022246B246E3D57C
:1045E000E5D461153314AA00814499BB85469D8E9C
:1045F000B1E71309E941B3972401B3D4D4003319C7
:104600002401B337F000B3649900DD8C93F7740094
:10461000B356D40081CF93F7F40011466388C700E6
:1046200093874400B3B49700A696BE849397860000
:1046300063D8070485470144814459B113068003B8
:10464000E341D6CC7D46E356D6FA0556B307F6408D
:10465000930500023356F4006387B6001309E9435B
:10466000B3172401DD8CB3349000D18C93F6740021
:10467000014499CA93F7F40011468146E392C7FAC0
:10468000139496003180F6068D80D58C81470DB944
:104690009307F07F0144814425B142896DBD3707FE
:1046A00010007D1701113373B70093D84601758F41
:1046B000935ED60122CC26CA0E0393D445019357AC
:1046C000D5010E0706CE4AC84EC693F8F87F130EE2
:1046D000F07F33E7EE0093F4F47F13D4F50133E376
:1046E0006700131F3500FD82931E36006380C819D2
:1046F00093C61600B38514416305D4126351B018F4
:10470000638B081AB70780005D8F6380C4599307D5
:10471000800363C3B734FD4763C4B74893070002FF
:104720008D8FB3D9BE003318F700B39EFE003368F7
:1047300038013357B700B339D00133683801330338
:10474000E340B3090F41B3373F013306F3409317FA
:10475000860063D30724370980007D193379260149
:10476000630F092C4A85EF00D020130785FF9307BC
:104770000002998FB3D7F9003316E900D18FB399AE
:10478000E9006344972A058F13061700FD4663C4AA
:10479000C63A13070002118FB3D6C9003398E90057
:1047A0003397E700558F33380001B369070133D6DB
:1047B000C700814493F7790081CF93F6F9009147C0
:1047C0006388F6009386490033B836014296B6896D
:1047D0009317860063D6071C138714009307F07F96
:1047E00005886306F720B70780FFFD17F18F139840
:1047F000D70193D93900A60733683801B1831377FD
:10480000F77F9396C7005207B1827E04D98EC18E7E
:10481000F2406244D2444249B2494285B6850561BC
:1048200082806356B00A638A0812B70780005D8FE2
:104830006386C42D9307800363C7B718FD4763D110
:10484000B73C138805FE93070002B3590701638A3A
:10485000F50093070004B385B7403317B700B3EEF4
:10486000EE003338D0013368380195A2B367D70121
:104870009385148099E393C61600630AD404D1E1AA
:104880009387140093F7E77F6398071EB367E301EC
:104890003368D701639204166381073C63150842AD
:1048A000131835009316D3011358380033E8060166
:1048B0009357330019A2B367D7016384071A93870C
:1048C000F5FF638A073A638BC523BE8589B5639874
:1048D000051C9386140093F7E67FC1EFB367E301ED
:1048E000639F0434638C0744B367D701639307461F
:1048F0000E051318D3010D813368A80093573300B8
:104900006DA8B385984063960420B367E301638C78
:1049100007309387F5FF638807401305F07F6382B4
:10492000A520BE859307800363C1B72AFD4763C7EF
:10493000B73C930700028D8F3318F3003356BF0046
:10494000B317FF003368C800B339F0003353B30026
:104950003368380133076740ADACB367D701638272
:1049600007109387F5FF638E071E638FC52DBE85E5
:10497000D1B59307F07F638BF606FA9E33B6EE014E
:10498000B307E300B2971398F70193DE1E00B369F3
:10499000D80113D61700B68493F77900E39F07E098
:1049A0009317D60113D839003368F800A6859357BA
:1049B00036001307F07F6380E506B207B18313F773
:1049C000F57F05883DBD3367D7013338E000B30973
:1049D000E801B3B7E9013386670093178600E3DD8A
:1049E00007FA85049307F07F639BF4180588130783
:1049F000F07F8147014831B5639007106300083CA0
:104A0000131836009317D701135838003368F8008D
:104A1000368493573700B367F800E9DB0144130786
:104A2000F07FB70708000148E9BB370680FF7D1615
:104A30007D8E93F77900998CE39107D895B74E85D1
:104A40000D2F13078501FD47E3D3E7D2130685FF3A
:104A5000B397C900814935B33368D70133380001B2
:104A6000CDB1131835009317D301135838003368AC
:104A7000F8009357330035BFB309DF413309E340F2
:104A800033363F013309C9409317890063CA0720B1
:104A900033E82901E31608CC8147014439BFB385C7
:104AA000984063810414B70680009307F07F336356
:104AB000D3006381F8209307800363CCB722FD47BE
:104AC00063C9B72C930700028D8F3318F300B356D8
:104AD000BF00B317FF003368D800B339F000335379
:104AE000B300336838011A97B309D801B3B7D901B5
:104AF0003386E700C684D5B5E31208F213183500F3
:104B00009317D301135838003368F80093573300D4
:104B100019B7370580009307F07F3363A300E39351
:104B2000F8E00E061318D7010D823368C8009357BA
:104B300037003684CDB505179306000233D7E7005A
:104B4000630AD600930600043386C6403396C70036
:104B5000B3E9C90033383001B369E8000146814444
:104B600025BDB309DF01B307E30033BFE901338695
:104B7000E701931786008544E3D007E28944B7072D
:104B800080FFFD17F18F13D7190013F81900336850
:104B900007019399F701B3E9090113D6170019B971
:104BA000138805FE93070002B3590701638AF500D5
:104BB00093070004B385B7403317B700B3EEEE0098
:104BC0003338D00133683801ADBE3363E301333885
:104BD0006000B3890E41B3B73E013306F740C68487
:104BE0003684B5B6B367E301638707189387F5FF8B
:104BF000638C071C9306F07F638ED50ABE8565BD66
:104C0000930700028D8FB3D9BE003318F700B39E0F
:104C1000FE00336838013357B700B339D001336829
:104C200038013A936DB3131836009317D701135810
:104C3000380033E807013684935737009DBBBDCB5E
:104C40003367D701E31C07DC0E051318D3010D8170
:104C50003368A800935733007DBBE30F08E21318B5
:104C600036009317D701135838003368F80036849C
:104C70009357370099B3B309DF41B307E340333F9C
:104C80003F013386E7418544D9B4131835009316A4
:104C9000D3011358380033E8060193573300A5BBFE
:104CA000B389EE413306674033B93E0133092641EB
:104CB00036847DB40E061318D7010D823368C80000
:104CC0009357370089BBB309DF41B307E34033365D
:104CD0003F013386C7409317860063D7070AB3891D
:104CE000EE41B3076740B3BE3E013386D7413684F9
:104CF000D1B43363E30133386000FDB3138805FE9C
:104D000093070002B3590301638AF5009307000477
:104D1000B385B7403313B300336F6F003338E0010E
:104D2000336838017DB5B389EE41B3076740B3BE40
:104D30003E013386D7413684854411BC13183600B2
:104D40009317D701135838003368F800935737008A
:104D5000ADB1B309DF01B307E30033BFE901338627
:104D6000E70193178600E3D907C2B70780FFFD1755
:104D70007D8E854415B10E061318D7010D82336858
:104D8000C8009357370035B133E8C900E30608D0AF
:104D900021B1138805FE93070002B3590301638A0A
:104DA000F50093070004B385B7403313B300336FA6
:104DB0006F003338E001336838013DB30144130715
:104DC000F07FB707080035BCB309DF01B307E30084
:104DD000B3BED9013386D70169BB13D74501B707E5
:104DE0001000FD171347F7FF13D84601FD8DF58F0F
:104DF000931657011378F87F99CA1307F07F01457E
:104E00006303E8008280D18F3335F0008280C98D42
:104E10000545E5D5828093D74501B7061000138775
:104E2000F6FF93F7F77F1306E03F6D8FFD81635C1C
:104E3000F6001306D041635AF6003705008013458B
:104E4000F5FF2E95828001458280130630431D8E2A
:104E50007D48558F635DC80093063041B387F640A7
:104E6000B357F7003305F040E5F13E858280938724
:104E7000D7BEB317F7003355C500C98FE5B7411149
:104E800006C622C426C205CD9357F541B3C4A70078
:104E90009D8C2A842685F12C9306E041898EA947B2
:104EA0007D8093F6F67F63CDA7022D47098FB3D798
:104EB000E4005505B207B394A400B18329A00144CE
:104EC000814681478144B207D206B1837E04D58FE3
:104ED000C18FB24022442685BE8592444101828022
:104EE0005515B397A400B207B1838144E9BF15CD2E
:104EF000411122C406C62A84AD2C9306E041898E56
:104F0000A94793F6F67F63DCA7025515B317A400F3
:104F1000B207B1830147B2402244B207D206B1833F
:104F2000D58F3A85BE854101828081478146B2078F
:104F3000D206B1830147D58F3A85BE8582802D4741
:104F4000098FB357E400B207130755013317E40084
:104F5000B183D1B70328C500184154410C452165E0
:104F60009307F5FF13560801139E35007D8E935865
:104F7000D70193D7D601131308018E064111B3E769
:104F8000C701B3E6160113530301131E370093083C
:104F900016007915F5810E033EC436C272C033F592
:104FA000A8001358F801B3E5650005C97177130728
:104FB00007403A961307E07F635DC7041306F07F4E
:104FC000014781473207520631837E08518F33678C
:104FD00007013E85BA8541018280D58FCD8FB3E729
:104FE000C70105E2F1CB8147954693D5360013976B
:104FF00097009396D701B3E7B60031831376F67F17
:10500000D1B7CDDF01481306F07F3707080081478D
:1050100055BF6346C00A9307C0FC634FF60E930763
:10502000D0033386C7409357564037070800D98DC1
:10503000139527000A8781462EC6B308A1001107E1
:105040007D8AB3E6C60163091701032E0700110725
:10505000B3E6C601E31B17FF0D471D8F79CA9308FE
:105060000101AA9883A808FF130E0002330ECE4058
:10507000B398C801B3E6160175CB0A070A95B30EBB
:10508000E1008A880C41032345009108B3D5C5008F
:105090003313C301B3E5650023AEB8FE1105E393F6
:1050A0001EFF9145B387F540B24508082A97B3D54E
:1050B000C5002328B7FE61A80146014721B7139711
:1050C0004600139547003367C701F182F1839205CB
:1050D0003337E000C98ECD8FD98E13F7760011C714
:1050E00013F7F6009145631CB702370780007D8FE8
:1050F000E30D07EE05061307F07FE301E6EC370743
:1051000080FF7D177D8F9317D7018D822607137639
:10511000F67FD58F31837DB585468147014613B72C
:10512000C6FF13471700BA973707800091067D8F97
:10513000C1B78A85B388A50083A808009105050634
:1051400023AE15FFE358C7FE1147B307F7408A07A0
:105150008A97180823A007009107E39DE7FE0247FE
:10516000B336D0009247D98E014685BF85470147A7
:105170002DBFC167637CF5029307F00F1307000290
:1051800063EBA7009707000093878746AA978823B9
:105190003305A74082802181970700009387474508
:1051A000AA97882361473305A7408280B70700018B
:1051B000636DF50061819707000093876743AA97A5
:1051C000882321473305A74082804181970700004B
:1051D00093870742AA97882341473305A7408280D7
:1051E0009307800523A8F1827D558280930780056F
:1051F00023A8F1827D5582809307800523A8F18240
:10520000014582809307800523A8F1827D55828025
:105210009307800523A8F1827D558280000000005D
:1052200000000040E17AB43F333333333333C33FBC
:10523000693A25332E32660D0A000000693A256569
:105240000D0A000000000000FFFFFFFFFFFFEF7FDF
:10525000494E4600696E66004E414E006E616E001A
:10526000300000003031323334353637383941427E
:105270004344454600000000303132333435363780
:105280003839616263646566000000000000000058
:10529000000000000000F83F61436F63A787D23F22
:1052A000B3C8608B288AC63FFB799F501344D33F15
:1052B000000000000000F03F00000000000024405B
:1052C0000000000000001C4000000000000014402E
:1052D000000000000000E03F496E66696E69747965
:1052E000000000004E614E000000000000000000C1
:1052F00000000000000000000000000000000000AE
:10530000000000000000000000000000000000009D
:10531000000000000000000000000000000000008D
:10532000000000000000000000000000000000007D
:10533000000000000000000000000000000000006D
:1053400000000000000000000080E03779C3414306
:10535000176E05B5B5B89346F5F93FE9034F384DDB
:10536000321D30F94877825A3CBF737FDD4F157587
:10537000000000000000F03F00000000000024409A
:1053800000000000000059400000000000408F4075
:10539000000000000088C34000000000006AF840E0
:1053A0000000000080842E4100000000D012634104
:1053B0000000000084D797410000000065CDCD417A
:1053C000000000205FA00242000000E8764837425B
:1053D000000000A2941A6D42000040E59C30A242F9
:1053E0000000901EC4BCD64200003426F56B0C436E
:1053F0000080E03779C3414300A0D8855734764315
:1054000000C84E676DC1AB43003D9160E458E14375
:10541000408CB5781DAF154450EFE2D6E41A4B44EA
:1054200092D54D06CFF08044F64AE1C7022DB5442F
:10543000B49DD9794378EA440500000019000000C2
:105440007D000000232D302B20000000686C4C00F4
:10545000656667454647000043000000504F5349CA
:10546000580000002E0000000020202020202020D6
:105470002020282828282820202020202020202004
:105480002020202020202020208810101010101014
:105490001010101010101010100404040404040460
:1054A00004040410101010101010414141414141FA
:1054B00001010101010101010101010101010101DC
:1054C00001010101101010101010424242424242EC
:1054D00002020202020202020202020202020202AC
:1054E0000202020210101010200000000000000054
:1054F00000000000000000000000000000000000AC
:10550000000000000000000000000000000000009B
:10551000000000000000000000000000000000008B
:10552000000000000000000000000000000000007B
:10553000000000000000000000000000000000006B
:10554000000000000000000000000000000000005B
:10555000000000000000000000000000000000004B
:105560000000000000000000000000003AE7FFFF1C
:10557000BEE5FFFFCEE6FFFFD6E6FFFFCEE6FFFF6C
:10558000EEE5FFFFCEE6FFFFD6E6FFFFBEE5FFFF3D
:10559000BEE5FFFFEEE5FFFFD6E6FFFF30E7FFFFCA
:1055A00030E7FFFF30E7FFFFEEE5FFFF4AEEFFFFCA
:1055B0003CEDFFFF3CEDFFFF3AEDFFFF42EDFFFF4B
:1055C00042EDFFFF08EDFFFF3AEDFFFF42EDFFFF69
:1055D00008EDFFFF42EDFFFF3AEDFFFF36EEFFFF64
:1055E00036EEFFFF36EEFFFF08EDFFFF000102027F
:1055F000030303030404040404040404050505056B
:105600000505050505050505050505050606060646
:10561000060606060606060606060606060606062A
:105620000606060606060606060606060707070716
:1056300007070707070707070707070707070707FA
:1056400007070707070707070707070707070707EA
:1056500007070707070707070707070707070707DA
:1056600007070707070707070707070708080808C6
:1056700008080808080808080808080808080808AA
:10568000080808080808080808080808080808089A
:10569000080808080808080808080808080808088A
:1056A000080808080808080808080808080808087A
:1056B000080808080808080808080808080808086A
:1056C000080808080808080808080808080808085A
:1056D000080808080808080808080808080808084A
:0C56E0000808080808080808080808085E
:1056EC000102030405060708010203040506070866
:1056FC000102030405060708010203040506070856
:10570C00000000000853000028530000E85200007D
:10571C00000000000000000000000000000000007D
:10572C00000000000000000000000000000000006D
:10573C00000000000000000000000000000000005D
:10574C00000000000000000000000000000000004D
:10575C00000000000000000000000000000000003D
:10576C0043000000000000000000000000000000EA
:10577C00000000000000000000000000000000001D
:10578C0043000000000000000000000000000000CA
:10579C0000000000000000000000000000000000FD
:1057AC0043000000000000000000000000000000AA
:1057BC0000000000000000000000000000000000DD
:1057CC00430000000000000000000000000000008A
:1057DC0000000000000000000000000000000000BD
:1057EC00430000000000000000000000000000006A
:1057FC00000000000000000000000000000000009D
:10580C004300000000000000000000000000000049
:10581C00000000000000000000000000000000007C
:10582C004300000000000000000000000000000029
:10583C00000000000000000000000000000000005C
:10584C00C03200005C320000000000006854000010
:10585C006454000074520000745200007452000032
:10586C007452000074520000745200007452000014
:10587C007452000074520000FFFFFFFFFFFFFFFF98
:10588C00FFFFFFFFFFFF00000100415343494900A8
:10589C0000000000000000000000000000000000FC
:1058AC000000000000000000000041534349490083
:1058BC0000000000000000000000000000000000DC
:1058CC0000000000000000000000000000000000CC
:1058DC00006CDC0244444444444444444444444442
:1058EC0024020020200000202000002000000000E6
:00000001FF
